:10000000342EFF3FFF3FFF3FFF00030E8301D2006E
:100010000A08D3008A010408A1008C1E3B2A1A0892
:100020002F3C031889283A301A0203188928CA0A73
:100030000319CB0A302830301A02D000D101031C3A
:10004000D103482830301A02C700C801031CC80376
:10005000482830301A02C500C601031CC6034828D0
:1000600000304B06031D362801304A0603191B28B1
:1000700000304B06031D3E2802304A060319222891
:1000800000304B06031D462803304A060319292871
:100090005008F0005108F1006430F4000030F50021
:1000A00031247008D4007108D5004708F0004808D2
:1000B000F1000A30F4000030F50031245408F00754
:1000C00055080318013EF1074508F00746080318D4
:1000D000013EF107B1237008CC007108CD00720811
:1000E000CE007308CF00CF237008D6007108D70068
:1000F0002230D800CA2595258C237C2321238B25EB
:100100002123902521238123212398232C2421237B
:10011000A3251A08603C03183B2A6C301A02031806
:100120003B2A1A08C100C201EB290530C300003088
:10013000C4003B2A0430C3000030C4003B2A033013
:10014000C3000030C4003B2A0130C3000030C400AB
:100150003B2AC301C4013B2A86010615BC25003099
:10016000D6000130D700862383124C08F0004D08DA
:10017000F1004E08F2004F08F3000030F4000030A8
:10018000F5002030F6008030F7008A240030F400BB
:100190000030F5004830F6008630F700EB24CF231E
:1001A0007008BD007108BE007008D6007108D70045
:1001B00068243B2AD001D101C701C801C501C6018D
:1001C000CA01CB013B2A8601EF28061417298614A1
:1001D000172986151729061617298616172900309C
:1001E0004406031DF528003043060319E5280030B6
:1001F0004406031DFD28013043060319E72800309B
:100200004406031D0529033043060319E92800307D
:100210004406031D0D29043043060319EB28003062
:100220004406031D1529053043060319ED288030C7
:10023000F000803044067002031D20294308003C72
:1002400003182A290030CC000030CD001030CE0039
:100250008530CF0000304406031D302900304306AE
:10026000031D3A290030CC000030CD005230CE00C2
:100270008530CF00BC250030D6000130D700862362
:1002800083124C08F0004D08F1004E08F2004F08B0
:10029000F3000030F4000030F5002030F60080302C
:1002A000F7008A240030F4000030F5004830F600F2
:1002B0008630F700EB24CF237008BD007108BE0024
:1002C0007008D6007108D70068243B2A860172297D
:1002D00006149A2986149A2986159A2906169A29A7
:1002E00086169A2900304406031D782900304306FB
:1002F0000319682900304406031D80290130430694
:1003000003196A2900304406031D88290330430677
:1003100003196C2900304406031D9029043043065C
:1003200003196E2900304406031D98290530430641
:10033000031970298030F000803044067002031DDC
:10034000A3294308003C0318AD290030CC0000303D
:10035000CD000830CE008530CF0000304406031DAC
:10036000B32900304306031DBD290030CC00003006
:10037000CD003430CE008430CF00BC250030D60014
:100380000130D700862383124C08F0004D08F1009D
:100390004E08F2004F08F3000030F4000030F50082
:1003A0002030F6008030F7008A240030F40000305E
:1003B000F5004830F6008630F700EB24CF237008B4
:1003C000BD007108BE007008D6007108D70068240F
:1003D0003B2A86013B2A00304206031DF129613089
:1003E00041060319952800304206031DF9296230A1
:1003F000410603199A2800304206031D012A633082
:10040000410603199F2800304206031D092A643063
:1004100041060319A42800304206031D112A653045
:1004200041060319A92800304206031D192A663027
:1004300041060319AC2800304206031D212A67300B
:1004400041060319DA2800304206031D292A6830C4
:1004500041060319E32800304206031D312A6930A2
:1004600041060319662900304206031D392A6A3005
:1004700041060319E9292108840053088A00520E15
:100480008300FF0E7F0E0900FA1FF21300300800F0
:10049000FB14FB1F522AFF30F300F200F100F000C2
:1004A000FA0DF20CFF300800F201F101F001F80141
:1004B000F3010030080083120313F801F901103032
:1004C000FC00710DF80DF90D7408F8027508031C95
:1004D000750FF9020318732A7408F80775080318D2
:1004E000750FF9070310F00DF10DFC0B612A0800E0
:1004F0007B15FB1F822A0130F300F201F101F001AC
:10050000FA0DF20CFF3008008312031340088A0032
:100510003F08820008007C18C12AFC18922A7C1926
:10052000E02A8B2AA0017208031DB22A7108F2008A
:100530007008F1007808F000F801A0157208031D9A
:10054000B22A7108F2007008F100F001A011201623
:100550007208031DB22A7108F200F101A015720899
:100560000319D42A2008F302031D031CD82A031000
:10057000F21BC12AF80DF00DF10DF20DF30BB82AA4
:10058000D82A7B1B701CDC2AF81FDC2AF00A03190E
:10059000F10A0319F20A031DDC2AF20CF10CF00C2B
:1005A000F30A0319E02ADC2A0130FC005422E32A72
:1005B0000230FC007822E32A0430FC004422E32AC3
:1005C0000830FC00482200000800A0017208031D4A
:1005D000FA2A7108F2007008F100F001A015720803
:1005E000031DFA2A7108F200F101A0112016720809
:1005F0000319082B2008F302031D031C0C2B031006
:10060000F21B102BF00DF10DF20DF30B002B0C2B48
:100610000130FC005422132B0230FC007822132BF3
:100620000430FC00442208007B14FB1F1F2BF20146
:10063000FA1FFF30F200F100F000FA0DF20CFF306B
:100640000800831203134908880009150330FC00D1
:100650009730FD00FD0B2A2BFC0B2A2B000000001D
:1006600009110330FC009730FD00FD0B352BFC0B0E
:10067000352B00000000080083120313E20105304F
:10068000620203184A2B6208610784002030800050
:10069000E20A3F2B6208610784008001E2036208DE
:1006A0006107E3000A30F400F5015F08F00060081C
:1006B000F1005B227808F0007908F1003030F00793
:1006C00063088400700880000A30F400F5015F08B8
:1006D000F0006008F1005B227008DF007108E000A4
:1006E00000307106031D762B00307006031D792B38
:1006F0007B2BE2034F2B0800383083120313C90011
:100700000800063083120313C90008008312031384
:100710005603831692000800413083120313FC0035
:10072000EE30FD00FD0B922BFC0B922B000008001D
:1007300083120313D601091456082C3E84000008C6
:10074000F10071080A3A0319AF2B56082C3E8400B9
:100750000008F0007008C9002123D60A9C2B09105C
:100760000800831203137008F8007108F000F1010B
:10077000F201F301FB01FC019630F300FA01F01FD6
:10078000C72BF809F009F80A0319F00AFA177008DC
:10079000F1007808F000F801F201E5220800831268
:1007A0000313FB01730803190C2C7208FA00F217EB
:1007B0008E30F302F31F0F2CF309F30A0830730293
:1007C000031CF22BF300F10D7208F100F201083066
:1007D0007302031CF22BF300F10DF1017308031DEA
:1007E0000310FA2B73080319FA2B0310F20CF10C07
:1007F000F30BF52B7B1B711C042C031C042CF10A3E
:100800000319F20AF21B1B2CFA1F1E2CF209F10924
:10081000F10A0319F20A1E2CF201F1011E2C7B14BD
:10082000FB1F212CF201FA1F212CFF30F200F100F6
:10083000FA0DF20C212C0130FC00232C0030FC00BE
:10084000232CFF30FC00FC080319272C142371080B
:10085000F0007208F1000800C03083120313C900D1
:10086000080083120313FB01FA01F9018030F8003C
:10087000F10CF00C031C452C7408F90775080318DB
:10088000750FFA070318FB0A0310F01F4D2C7408AC
:10089000FA0775080318750FFB07FB0CFA0CF90C27
:1008A000F80C031C382C7B08F3007A08F200790856
:1008B000F1007808F000080084228A110A128000F2
:1008C000840ABF0A0319C00AF003031D5C2C080048
:1008D0000330831203135605F2007208F000F00D86
:1008E0007010F00D7010F00D7010F00D7010700899
:1008F00097045608F0005708F100F10CF00CF113C2
:10090000711BF117F10CF00CF113711BF11770084A
:100910009500080083120313FB017308031D770879
:100920000319E12C72087606FA007708F3077E3087
:10093000031C9E2CF3020318E42CA12CF302031CCD
:10094000E72C7208F8007108FC007008FD00F81729
:10095000F6170310F201F101F0011830A0007D1C20
:10096000BB2C7408F00775080318750FF10776089B
:100970000318760FF207F20CF10CF00CF80CFC0CDB
:10098000FD0C0310A00BAF2CF21BCB2CF80DF00DBF
:10099000F10DF20DF3037B1B701CDD2CF81FDD2C19
:1009A000F00A0319F10A0319F20A031DDD2CF20CF7
:1009B000F10CF00CF30A0319E42CFA1FF2130030C7
:1009C000E92C01305422E92C02304822E92C043071
:1009D0007822000008008312031372087606A00034
:1009E000F801F90173087702031C0E2D7708FD004A
:1009F0007308F7007D08F3007608FD007208F60022
:100A00007D08F2007508FD007108F5007D08F10011
:100A10007408FD007008F4007D08F00077080319E1
:100A2000872D7208FA00F217F61777087302F7009D
:100A30000319412D08307702031C372DF700740885
:100A4000F9007508F4007608F500F6010830770221
:100A5000031C372DF7007408F9007508F400F50140
:100A600008307702031C372D7A08F200872D7708AB
:100A70000319412D0310F60CF50CF40CF90CF70BCF
:100A80003A2DA01F4E2DF909F409F509F609F90AC6
:100A90000319F40A0319F50A0319F60A7908F80785
:100AA00074080318740FF00775080318750FF10721
:100AB00076080318760FF207A01B672D031C772D0D
:100AC000F20CF10CF00CF80CF30F772D832D0318BA
:100AD0007B2DF809F009F109F209F80A0319F00A67
:100AE0000319F10A0319F20A8030FA067F2D01304A
:100AF000FC008B22892D0230FC008B22892D0430D2
:100B0000FC00E522892D0830FC004822892D0030A8
:100B1000FC00000008000E3083120313C900080017
:100B2000013083120313C9000800831603178801DC
:100B3000003083120313890530308800003083169B
:100B400089058801080083120313D6010914560889
:100B5000223E84000008F1007108003A0319BA2D02
:100B60005608223E84000008F0007008C9002123C6
:100B7000D60AA72D09100800831203139713171321
:100B8000971517158C1012158316071183129214DE
:100B90001214080083120313DB01DC015608DD0088
:100BA0005708DE0080305706F00080307002031DC9
:100BB000DB2D003056020318E92D0130DB00003038
:100BC000DC005608003CDD005708031C013EDE0136
:100BD000DE025D08DF005E08E0005808E1003C230B
:100BE0000630D9000030DA005A08003C031DFA2D07
:100BF0005908003C0318152E59085807F200013017
:100C00005902F0000030031C013E5A02F100700846
:100C1000580784000008F000720884007008800003
:100C20000130D902031CDA03F42D58088400203067
:100C300080005B085C040319332ED901DA015908DE
:100C4000580784000008203A031D2A2ED90A0319E8
:100C5000DA0A1F2E0130D902031CDA03590858079B
:100C600084002D3080000800203083120313A2007E
:100C70002030A3002030A4002030A5002030A600A2
:100C80002030A7002030A8002030A900AA01AB0125
:100C90002030AC004D30AD004130AE004E30AF00E2
:100CA0004F30B0002030B1005230B2004F30B300AE
:100CB0004230B4004F30B5005430B6004930B70070
:100CC0004330B8004130B9002030BA000A30BB00D0
:100CD000BC0183161812181103178711193003135A
:100CE0009900831298171816831698168C160B17EE
:100CF0008B17880105168312D001D101C701C801E5
:100D0000C501C601CA01CB01C030831686003F3041
:100D100083128600051A972ED001D101C701C801A0
:100D2000C501C601CA01CB01051A972E942E8A2E41
:100D3000982EFF3FFF3FFF3FFF3FFF3FFF3FFF3F3B
:04400E00F42F000784
:00000001FF
